:02000000082ACC
:10000800FF00030E8301D1000A08D2008A0170089C
:10001800A5007108A4007208A3007B08A2007C0850
:10002800A1007D08A0000408A6008B1CBE2886112C
:10003800061286120613861CBA280130CF0000303B
:10004800D000851E7028051C70280330CB000030B6
:10005800CC0080304C06F00080307002031D36283A
:1000680000304B02031C6F288512061586160617EA
:100078004B0887000B30FB002630FC005D30FD008C
:10008800FD0B4428FC0B4428FB0B4428000000000F
:1000980000304C06031D522800304B06031D6A2809
:1000A80085150611051505104B0888004B088700B3
:1000B8000B30FB002630FC005D30FD00FD0B622894
:1000C800FC0B6228FB0B6228000000000130CB0209
:1000D800031CCC032D28BA28051DBA28851DBA286B
:1000E8000330CB000030CC0080304C06F00080306C
:1000F8007002031D812800304B02031CBA28051129
:100108008514861506164B0887000B30FB00263031
:10011800FC005D30FD00FD0B8F28FC0B8F28FB0BCE
:100128008F280000000000304C06031D9D28003079
:100138004B06031DB52885110514851085164B0837
:1001480088004B0887000B30FB002630FC005D3030
:10015800FD00FD0BAD28FC0BAD28FB0BAD28000006
:1001680000000130CB02031CCC0378280618BE28F7
:100178008B10E6202508F0002408F1002308F2007F
:100188002208FB002108FC002008FD002608840046
:0E01980052088A00510E8300FF0E7F0E0900F0
:0E01A600831203134E088A004D0882000800E1
:1001B400D3208A110A128000840ACD0A0319CE0AB8
:0801C400F003031DDA28080016
:1001CC000730831603139F008312CF01D001C9019E
:1001DC00CA01C701C801831606148614870185015C
:1001EC008801831287018801831606118611061275
:1001FC00861206138312051085100511851206113F
:10020C00851186110612861206138B170B16831690
:10021C00011783120618062A861506168616061767
:10022C008030F00080304A067002031D1F294908F7
:10023C00173C031C8C2900305006031D2729003065
:10024C004F06031D8B294908F0004A08F100F00DF8
:10025C00F10D70107008A03E840000088700051492
:10026C00851005118516061185110B30FB00263003
:10027C00FC005D30FD00FD0B4129FC0B4129FB0B03
:10028C0041290000000000304A06031D4F2914309C
:10029C004906031D88298030F00080304A06700220
:1002AC00031D5A294908173C031C882900305006A5
:1002BC00031D622900304F06031D87294908F000F1
:1002CC004A08F100F00DF10D70107008A03E84008A
:1002DC000008870005148510051185120615851177
:1002EC00C90A0319CA0A0B30FB002630FC005D302A
:1002FC00FD00FD0B7F29FC0B7F29FB0B7F290000E8
:10030C0000005129C90A0319CA0A1629C901CA01D0
:10031C008030F000803048067002031D9729470892
:10032C000F3C031C042A00305006031D9F2900308B
:10033C004F06031D032A4708F0004808F100F00D92
:10034C00F10D70107008273E84000008870005101E
:10035C00851005158512061185150B30FB0026300E
:10036C00FC005D30FD00FD0BB929FC0BB929FB0B22
:10037C00B9290000000000304806031DC7290C30C5
:10038C004706031D002A8030F000803048067002BA
:10039C00031DD22947080F3C031C002A00305006CD
:1003AC00031DDA2900304F06031DFF294708F00012
:1003BC004808F100F00DF10D70107008273E840014
:1003CC000008870005108514051185120611851586
:1003DC00C70A0319C80A0B30FB002630FC005D303D
:1003EC00FD00FD0BF729FC0BF729FB0BF72900008F
:1003FC000000C929C70A0319C80A8E29C701C801F8
:04040C00E6280800D6
:0804100062228B10E6200B2A8A
:1004C40027308400203083120313F0004130CD0024
:1004D4000230CE00DA20A030840030300313F00064
:0C04E4001130CD000230CE00DA200800FC
:1004220023340034223400342134003420340034A4
:1004320019340034183400341734003416340034BC
:1004420015340034143400341334003412340034BC
:1004520011340034103400340934003408340034C8
:1004620007340034063400340534003404340034D4
:1004720003340034023400340134003400340034D4
:10048200153400341434003413340034123400347C
:100492001134003410340034093400340834003488
:1004A2000734003406340034053400340434003494
:1004B2000334003402340034013400340034003494
:02400E004A2F37
:00000001FF
